{
  "_format": "hh-sol-artifact-1",
  "contractName": "CarRenter",
  "sourceName": "contracts/carRenter.sol",
  "abi": [
    {
      "inputs": [
        {
          "internalType": "uint256",
          "name": "_rentalRatePerHour",
          "type": "uint256"
        }
      ],
      "stateMutability": "nonpayable",
      "type": "constructor"
    },
    {
      "anonymous": false,
      "inputs": [
        {
          "indexed": false,
          "internalType": "uint256",
          "name": "carId",
          "type": "uint256"
        },
        {
          "indexed": false,
          "internalType": "address",
          "name": "renter",
          "type": "address"
        },
        {
          "indexed": false,
          "internalType": "uint256",
          "name": "upfrontPayment",
          "type": "uint256"
        }
      ],
      "name": "CarReserved",
      "type": "event"
    },
    {
      "anonymous": false,
      "inputs": [
        {
          "indexed": false,
          "internalType": "uint256",
          "name": "carId",
          "type": "uint256"
        },
        {
          "indexed": false,
          "internalType": "uint256",
          "name": "totalCost",
          "type": "uint256"
        },
        {
          "indexed": false,
          "internalType": "uint256",
          "name": "refund",
          "type": "uint256"
        }
      ],
      "name": "CarReturned",
      "type": "event"
    },
    {
      "inputs": [],
      "name": "addCar",
      "outputs": [],
      "stateMutability": "nonpayable",
      "type": "function"
    },
    {
      "inputs": [],
      "name": "carCount",
      "outputs": [
        {
          "internalType": "uint256",
          "name": "",
          "type": "uint256"
        }
      ],
      "stateMutability": "view",
      "type": "function"
    },
    {
      "inputs": [],
      "name": "owner",
      "outputs": [
        {
          "internalType": "address payable",
          "name": "",
          "type": "address"
        }
      ],
      "stateMutability": "view",
      "type": "function"
    },
    {
      "inputs": [],
      "name": "rentalRatePerHour",
      "outputs": [
        {
          "internalType": "uint256",
          "name": "",
          "type": "uint256"
        }
      ],
      "stateMutability": "view",
      "type": "function"
    },
    {
      "inputs": [
        {
          "internalType": "uint256",
          "name": "",
          "type": "uint256"
        }
      ],
      "name": "rentals",
      "outputs": [
        {
          "internalType": "address payable",
          "name": "renter",
          "type": "address"
        },
        {
          "internalType": "uint256",
          "name": "startTime",
          "type": "uint256"
        },
        {
          "internalType": "uint256",
          "name": "upfrontPayment",
          "type": "uint256"
        },
        {
          "internalType": "bool",
          "name": "isActive",
          "type": "bool"
        }
      ],
      "stateMutability": "view",
      "type": "function"
    },
    {
      "inputs": [
        {
          "internalType": "uint256",
          "name": "carId",
          "type": "uint256"
        }
      ],
      "name": "reserveCar",
      "outputs": [],
      "stateMutability": "payable",
      "type": "function"
    },
    {
      "inputs": [
        {
          "internalType": "uint256",
          "name": "carId",
          "type": "uint256"
        }
      ],
      "name": "returnCar",
      "outputs": [],
      "stateMutability": "nonpayable",
      "type": "function"
    },
    {
      "inputs": [
        {
          "internalType": "uint256",
          "name": "_rentalRatePerHour",
          "type": "uint256"
        }
      ],
      "name": "setRentalRate",
      "outputs": [],
      "stateMutability": "nonpayable",
      "type": "function"
    }
  ],
  "bytecode": "0x608060405234801561001057600080fd5b50604051611118380380611118833981810160405281019061003291906100c2565b336000806101000a81548173ffffffffffffffffffffffffffffffffffffffff021916908373ffffffffffffffffffffffffffffffffffffffff160217905550806001819055506000600381905550506100ef565b600080fd5b6000819050919050565b61009f8161008c565b81146100aa57600080fd5b50565b6000815190506100bc81610096565b92915050565b6000602082840312156100d8576100d7610087565b5b60006100e6848285016100ad565b91505092915050565b61101a806100fe6000396000f3fe60806040526004361061007b5760003560e01c80638da5cb5b1161004e5780638da5cb5b1461011b578063af94a1d114610146578063c5e56a2814610186578063f1354acc146101af5761007b565b806317f956e01461008057806318997ced146100a9578063297a1f56146100d457806350ab1a01146100ff575b600080fd5b34801561008c57600080fd5b506100a760048036038101906100a2919061097e565b6101c6565b005b3480156100b557600080fd5b506100be610575565b6040516100cb91906109ba565b60405180910390f35b3480156100e057600080fd5b506100e961057b565b6040516100f691906109ba565b60405180910390f35b6101196004803603810190610114919061097e565b610581565b005b34801561012757600080fd5b50610130610782565b60405161013d9190610a16565b60405180910390f35b34801561015257600080fd5b5061016d6004803603810190610168919061097e565b6107a6565b60405161017d9493929190610a4c565b60405180910390f35b34801561019257600080fd5b506101ad60048036038101906101a8919061097e565b610803565b005b3480156101bb57600080fd5b506101c461089b565b005b6000811180156101d857506003548111155b610217576040517f08c379a000000000000000000000000000000000000000000000000000000000815260040161020e90610aee565b60405180910390fd5b60006002600083815260200190815260200160002090508060030160009054906101000a900460ff1661027f576040517f08c379a000000000000000000000000000000000000000000000000000000000815260040161027690610b5a565b60405180910390fd5b8060000160009054906101000a900473ffffffffffffffffffffffffffffffffffffffff1673ffffffffffffffffffffffffffffffffffffffff163373ffffffffffffffffffffffffffffffffffffffff1614610311576040517f08c379a000000000000000000000000000000000000000000000000000000000815260040161030890610bec565b60405180910390fd5b60008160010154426103239190610c3b565b90506000600154610e10836103389190610c9e565b6103429190610ccf565b905060008360030160006101000a81548160ff021916908315150217905550826002015481111561044c57600083600201548261037f9190610c3b565b9050803373ffffffffffffffffffffffffffffffffffffffff163110156103db576040517f08c379a00000000000000000000000000000000000000000000000000000000081526004016103d290610d83565b60405180910390fd5b8360000160009054906101000a900473ffffffffffffffffffffffffffffffffffffffff1673ffffffffffffffffffffffffffffffffffffffff166108fc829081150290604051600060405180830381858888f19350505050158015610445573d6000803e3d6000fd5b5050610508565b600081846002015461045e9190610c3b565b90508360000160009054906101000a900473ffffffffffffffffffffffffffffffffffffffff1673ffffffffffffffffffffffffffffffffffffffff166108fc829081150290604051600060405180830381858888f193505050501580156104ca573d6000803e3d6000fd5b507f352eb78f2b901c29a1cb8052a905c308311ba0c9fb0a5dfcbf4802273f5ef7c78583836040516104fe93929190610da3565b60405180910390a1505b60008054906101000a900473ffffffffffffffffffffffffffffffffffffffff1673ffffffffffffffffffffffffffffffffffffffff166108fc829081150290604051600060405180830381858888f1935050505015801561056e573d6000803e3d6000fd5b5050505050565b60015481565b60035481565b60008111801561059357506003548111155b6105d2576040517f08c379a00000000000000000000000000000000000000000000000000000000081526004016105c990610aee565b60405180910390fd5b60003411610615576040517f08c379a000000000000000000000000000000000000000000000000000000000815260040161060c90610e26565b60405180910390fd5b6002600082815260200190815260200160002060030160009054906101000a900460ff1615610679576040517f08c379a000000000000000000000000000000000000000000000000000000000815260040161067090610e92565b60405180910390fd5b60405180608001604052803373ffffffffffffffffffffffffffffffffffffffff168152602001428152602001348152602001600115158152506002600083815260200190815260200160002060008201518160000160006101000a81548173ffffffffffffffffffffffffffffffffffffffff021916908373ffffffffffffffffffffffffffffffffffffffff160217905550602082015181600101556040820151816002015560608201518160030160006101000a81548160ff0219169083151502179055509050507f733822b8a5245ecc4a5ea42055444d5a3bf229bfe8524ee99e5546ded94a868981333460405161077793929190610ed3565b60405180910390a150565b60008054906101000a900473ffffffffffffffffffffffffffffffffffffffff1681565b60026020528060005260406000206000915090508060000160009054906101000a900473ffffffffffffffffffffffffffffffffffffffff16908060010154908060020154908060030160009054906101000a900460ff16905084565b60008054906101000a900473ffffffffffffffffffffffffffffffffffffffff1673ffffffffffffffffffffffffffffffffffffffff163373ffffffffffffffffffffffffffffffffffffffff1614610891576040517f08c379a000000000000000000000000000000000000000000000000000000000815260040161088890610f7c565b60405180910390fd5b8060018190555050565b60008054906101000a900473ffffffffffffffffffffffffffffffffffffffff1673ffffffffffffffffffffffffffffffffffffffff163373ffffffffffffffffffffffffffffffffffffffff1614610929576040517f08c379a000000000000000000000000000000000000000000000000000000000815260040161092090610f7c565b60405180910390fd5b6003600081548092919061093c90610f9c565b9190505550565b600080fd5b6000819050919050565b61095b81610948565b811461096657600080fd5b50565b60008135905061097881610952565b92915050565b60006020828403121561099457610993610943565b5b60006109a284828501610969565b91505092915050565b6109b481610948565b82525050565b60006020820190506109cf60008301846109ab565b92915050565b600073ffffffffffffffffffffffffffffffffffffffff82169050919050565b6000610a00826109d5565b9050919050565b610a10816109f5565b82525050565b6000602082019050610a2b6000830184610a07565b92915050565b60008115159050919050565b610a4681610a31565b82525050565b6000608082019050610a616000830187610a07565b610a6e60208301866109ab565b610a7b60408301856109ab565b610a886060830184610a3d565b95945050505050565b600082825260208201905092915050565b7f496e76616c696420636172496400000000000000000000000000000000000000600082015250565b6000610ad8600d83610a91565b9150610ae382610aa2565b602082019050919050565b60006020820190508181036000830152610b0781610acb565b9050919050565b7f436172206973206e6f742072656e746564000000000000000000000000000000600082015250565b6000610b44601183610a91565b9150610b4f82610b0e565b602082019050919050565b60006020820190508181036000830152610b7381610b37565b9050919050565b7f4f6e6c79207468652072656e7465722063616e2072657475726e20746865206360008201527f6172000000000000000000000000000000000000000000000000000000000000602082015250565b6000610bd6602283610a91565b9150610be182610b7a565b604082019050919050565b60006020820190508181036000830152610c0581610bc9565b9050919050565b7f4e487b7100000000000000000000000000000000000000000000000000000000600052601160045260246000fd5b6000610c4682610948565b9150610c5183610948565b9250828203905081811115610c6957610c68610c0c565b5b92915050565b7f4e487b7100000000000000000000000000000000000000000000000000000000600052601260045260246000fd5b6000610ca982610948565b9150610cb483610948565b925082610cc457610cc3610c6f565b5b828204905092915050565b6000610cda82610948565b9150610ce583610948565b9250828202610cf381610948565b91508282048414831517610d0a57610d09610c0c565b5b5092915050565b7f496e73756666696369656e742066756e647320666f72206164646974696f6e6160008201527f6c207061796d656e740000000000000000000000000000000000000000000000602082015250565b6000610d6d602983610a91565b9150610d7882610d11565b604082019050919050565b60006020820190508181036000830152610d9c81610d60565b9050919050565b6000606082019050610db860008301866109ab565b610dc560208301856109ab565b610dd260408301846109ab565b949350505050565b7f557066726f6e74207061796d656e742069732072657175697265640000000000600082015250565b6000610e10601b83610a91565b9150610e1b82610dda565b602082019050919050565b60006020820190508181036000830152610e3f81610e03565b9050919050565b7f43617220697320616c72656164792072656e7465640000000000000000000000600082015250565b6000610e7c601583610a91565b9150610e8782610e46565b602082019050919050565b60006020820190508181036000830152610eab81610e6f565b9050919050565b6000610ebd826109d5565b9050919050565b610ecd81610eb2565b82525050565b6000606082019050610ee860008301866109ab565b610ef56020830185610ec4565b610f0260408301846109ab565b949350505050565b7f4f6e6c79206f776e65722063616e2063616c6c20746869732066756e6374696f60008201527f6e00000000000000000000000000000000000000000000000000000000000000602082015250565b6000610f66602183610a91565b9150610f7182610f0a565b604082019050919050565b60006020820190508181036000830152610f9581610f59565b9050919050565b6000610fa782610948565b91507fffffffffffffffffffffffffffffffffffffffffffffffffffffffffffffffff8203610fd957610fd8610c0c565b5b60018201905091905056fea2646970667358221220cc4a447c8216a07c614f98f04d86b2631818cb97bdf8f18ee931a43e8f7967b464736f6c63430008110033",
  "linkReferences": {},
  "deployedLinkReferences": {}
}